:060000000A128A11FC2F18
:100EFC000A128A1184270A128A1108008316031316
:100F0C00880105080339850083120313050803398A
:100F1C00850008000A128A117E270A128A110630EF
:100F2C00FA005B30FB004F30FC006630FD007A307D
:100F3C000A128A11A7270A128A11952F0A128A11EE
:100F4C000028F800F90179087807F000700884008F
:100F5C0000088312031388000430F000790AB82FBC
:100F6C000310F00DFF3E031DB62F05080339700466
:100F7C0085000030F7000030F6000130F5009030AD
:100F8C00F4000130F0000030F1000030F2000030CD
:100F9C00F3007008F4027108031C710FD62FD72FC1
:100FAC00F5027208031C720FDC2FDD2FF60273089A
:100FBC00031C730FE22FE32FF702740A031DF02FAB
:100FCC00750A031DF02F760A031DF02F770A031DF7
:100FDC00F02FF12FC72F0130FF007F08F9070430E5
:100FEC007902031CFA2FFB2FA92F080083010A1288
:040FFC008A11902F97
:08400000FF3FFF3FFF3FFF3FC0
:02400E00FB3F76
:00000001FF
