:060000000A128A110C280F
:10000800FE00030EF0000A08F1000A128A115C29AA
:100018000A128A110F2883120313B10183010A12ED
:100028008A117E28003083120313A3000030A20037
:100038000030A1000030A000750874047304720435
:100048000319272828287528A401A40A382801306C
:10005800FA000310F20DF30DF40DF50DFA0B2D282F
:100068000130FF007F08A407F51F3B283C282B28F8
:100078000130FA000310A00DA10DA20DA30DFA0B7B
:100088003E2875087902031D532874087802031D59
:10009800532873087702031D532872087602031C3D
:1000A8005628572866287208F6027308031C730F2F
:1000B800F7027408031C740FF8027508031C750F07
:1000C800F902201401300310F50CF40CF30CF20CB7
:1000D800FF3E031D67280130A402031D74287528FC
:1000E8003C282308F5002208F4002108F300200822
:1000F800F20008000A128A1128210A128A11003017
:1001080083120313B0000030AF000030AE0000309F
:10011800AD00831203133108031993289428A328E8
:1001280031080A128A1171210A128A110A300A1238
:100138008A1171210A128A1183120313B101013045
:10014800AD07003003180130AE0700300318013046
:10015800AF07003003180130B007A1302D068630F4
:1001680003192E06031DBD282F033004031DBD28C7
:10017800BE288D28003083120313B0000030AF0072
:100188000030AE000030AD00023088068D280A121B
:100198008A110C28831203139817831603139816D1
:1001A8001815831203131816831603138C1683125B
:1001B80003132508A9002608AA002708AB00280869
:1001C800AC0004300310A90DAA0DAB0DAC0DFF3E19
:1001D800031DE6282C08F5002B08F4002A08F30074
:1001E8002908F2000130F9003130F8002D30F7000D
:1001F8000030F6000A128A1116200A128A117208B3
:10020800FF3E8316031399000800F3001B297308A7
:1002180084000A128A1145210A128A110A128A11C7
:1002280071210A128A110130FF007F08F307730851
:1002380084000A128A1145210A128A11003A031D04
:10024800262927290B29080083160313880186010C
:100258008312031388100030A8000030A70025304F
:10026800A6008030A5000A128A11CE200A128A112F
:100278008B170B1701300A128A1109210A128A11E9
:10028800080001308A000408840A820700345534C3
:10029800413452345434203454344534533454346F
:1002A800203443344F34443445340A340D34003454
:1002B800831203138C1E612962296A29981C6529F7
:1002C8006629672998101A08B1008C1271088A00EB
:1002D800700E8300FE0E7E0E0900F2007208831273
:1002E800031399000C1E79297A2976290C12080023
:02400E00FB3F76
:00000001FF
