:100000000A128A11FC2FFF1B0D2883137F188317F8
:100010000008840A0319FF0A080000308A00040857
:10002000840A82070034483448343A344D344D341D
:080030003A3453345334003418
:100A68000A128A1165250A128A1183160313911432
:100A780008000A128A1165250A128A1183160313BF
:100A8800111408000A128A1165250A128A118316A0
:100A9800031311150800F0000A128A1165250A12BD
:100AA8008A11700883120313930008008316031336
:100AB8008801091189100A128A1133270A128A112A
:100AC80008008316031314196A2D6B2D652D110860
:100AD8001F39031D702D712D652D080000300A1275
:100AE8008A1150260A128A11F40074087F39F4001A
:100AF8007408F10000300A128A119A250A128A1124
:100B080008000A128A11D9250A128A112A300A12F3
:100B18008A11B8250A128A112A300A128A11E02687
:100B28000A128A118A2D0A128A110028F2000A1262
:100B38008A113D250A128A11D0300A128A114F25CE
:100B48000A128A1172080A128A114F250A128A118A
:100B580071080A128A114F250A128A110A128A117B
:100B680046250A128A110800F4007408840002302D
:100B78000A128A1150260A128A1183138000740AF5
:100B8800840001300A128A1150260A128A1183132E
:100B980080007408023E840000300A128A11502630
:100BA8000A128A118313800008000030831203138D
:100BB800A3000130A2008630A100A030A0000A12D4
:100BC8008A1126260A128A110A128A115A250A122D
:100BD8008A110A128A1172250A128A110130F40048
:100BE8008030F5008230F6000A128A117B260A123C
:100BF8008A110800F1000A128A1165250A128A1161
:100C08008316031391150A128A1165250A128A118F
:100C1800831203131308F0007103031D142E152EFD
:100C2800192E831603139116212E7108031D1D2EEC
:100C38001E2E212E831603139112831603131116E9
:100C48007008080083120313941694152308F30000
:100C58002208F2002108F1002008F0000130F70016
:100C68003130F6002D30F5000030F4000A128A11F8
:100C780096270A128A11700883120313A400013000
:100C88000310A40DFF3E031D442E0310240DFF3E48
:100C98008316031393000800F2000A128A113D25F7
:100CA8000A128A11D0300A128A114F250A128A11A3
:100CB80072080A128A114F250A128A110A128A1119
:100CC80034250A128A11D1300A128A114F250A12C4
:100CD8008A1100300A128A11FE250A128A11F300BD
:100CE8000A128A1146250A128A1173080800F001AF
:100CF80076080A128A11AA260A128A11992EF00178
:100D0800F00A7508FF00740884000A128A1103208B
:100D18000A128A110A128A11AA260A128A110130A5
:100D2800F4070318F50A0030F50775088312031352
:100D3800FF00740884000A128A1103200A128A111B
:100D4800003A031DA82EA92E832E0800F300701860
:100D5800AE2EB22E831203130915B52E8312031378
:100D680009117308F03988008914A630F100F10BD5
:100D7800BB2E000083120313891073080F39F1008A
:100D880003300310F10DFF3E031DC52E0310710D36
:100D980088008914A630F100F10BD02E00008312D0
:100DA800031389101B30F2009E30F100F10BDA2E8C
:100DB800F20BDA2E0000080083120313A900290899
:100DC800840083130008F70004300310F70CFF3E7B
:100DD800031DE92E77080339303EA0002908840056
:100DE80000080F39303EA1003A30A200290A8400D9
:100DF8000008F70004300310F70CFF3E031DFF2E18
:100E080077080739303EA300290A840000080F3903
:100E1800303EA4003A30A5002908023E84000008AC
:100E2800F70004300310F70CFF3E031D162F770858
:100E38000739303EA6002908023E840000080F3911
:100E4800303EA700A8012030F4000030F500C33080
:100E5800F6000A128A117B260A128A110800C3308A
:100E6800F500CD30F400F40B372FF50B372FF001D8
:100E780033300A128A11AA260A128A111B30F50089
:100E88009E30F400F40B462FF50B462F0000F001BE
:100E980033300A128A11AA260A128A11A630F400DF
:100EA800F40B542F0000F00133300A128A11AA26DD
:100EB8000A128A115F2F602F0000F00102300A1217
:100EC8008A11AA260A128A11A630F400F40B6A2F96
:100ED8000000F00128300A128A11AA260A128A1183
:100EE800A630F400F40B762F0000F00101300A124E
:100EF8008A11AA260A128A110430F5003D30F4003E
:100F0800F40B842FF50B842F892FF0010C300A1273
:100F18008A11AA260A128A11A630F400F40B922F1D
:100F2800000008000030FC000030FB000030FA0030
:100F38000030F90073087204710470040319A52FB6
:100F4800A62FF32FFD01FD0AB62F0130F80003107C
:100F5800F00DF10DF20DF30DF80BAB2F0130FF0082
:100F68007F08FD07F31FB92FBA2FA92F0130F8000A
:100F78000310F90DFA0DFB0DFC0DF80BBC2F7308CF
:100F88007702031DD12F72087602031DD12F710835
:100F98007502031DD12F70087402031CD42FD52F9E
:100FA800E42F7008F4027108031C710FF50272082F
:100FB800031C720FF6027308031C730FF7027914EF
:100FC80001300310F30CF20CF10CF00CFF3E031D82
:100FD800E52F0130FD02031DF22FF32FBA2F7C08F5
:100FE800F3007B08F2007A08F1007908F0000800A5
:080FF80083010A128A11852D04
:02400E00FB3F76
:00000001FF
