:020000040000FA
:100000000A128A11FC2FFF1B0D2883137F188317F8
:100010000008840A0319FF0A080000308A00040857
:10002000840A82070034543445344D34503420342B
:0E003000533445344E3453344F34523400347C
:10026200831603139F17831203131F1408008316A8
:1002720003138801091189100A128A1124230A1210
:100282008A1108000A128A1138210A128A110A12E6
:100292008A1131210A128A110130F4008030F500EE
:1002A2008030F6000A128A119F210A128A11080070
:1002B200F5007508F20003300310F20DFF3E031D36
:1002C2005D29831203131F08C73972049F001F158B
:1002D2001F196C296D2969291E08F400831603135E
:1002E2001E08F3007408F1007308F0000800F8001B
:1002F200F401F5017008F200F3017208F6007308C8
:10030200F700781C852986298C297608F4070318BA
:10031200F50A7708F50701300310F60DF70DFF3ED9
:10032200031D8D290310F80C7808031D99299A29B9
:1003320082297508F1007408F0000800F0017608BF
:100342000A128A11CE210A128A11BD29F001F00A7D
:100352007508FF00740884000A128A1103200A1229
:100362008A110A128A11CE210A128A110130F40767
:100372000318F50A0030F507750883120313FF000E
:10038200740884000A128A1103200A128A11003AA0
:10039200031DCC29CD29A7290800F3007018D22902
:1003A200D629831203130915D929831203130911BC
:1003B2007308F03988008914A630F100F10BDF29A7
:1003C200000083120313891073080F39F100033000
:1003D2000310F10DFF3E031DE9290310710D880082
:1003E2008914A630F100F10BF429000083120313E3
:1003F20089101B30F2009E30F100F10BFE29F20B46
:10040200FE2900000800700871040319092A0A2A4B
:10041200392AF501F50A182A01300310F00DF10D01
:10042200FF3E031D0E2A0130F4007408F507F11F88
:100432001B2A1C2A0D2A71087302031D222A700826
:100442007202031C252A262A2C2A7008F20271083D
:10045200031CF303F30201300310F10CF00CFF3E16
:10046200031D2D2A0130F502031D382A392A1C2AC0
:100472007308F1007208F0000800F501F601700837
:1004820071040319452A462A7D2AF701F70A542ADC
:1004920001300310F00DF10DFF3E031D4A2A013019
:1004A200F4007408F707F11F572A582A492A013025
:1004B2000310F50DF60DFF3E031D592A7108730254
:1004C200031D652A70087202031C682A692A702AB1
:1004D2007008F2027108031CF303F3027514013071
:1004E2000310F10CF00CFF3E031D712A0130F702DC
:1004F200031D7C2A7D2A582A7608F1007508F0002F
:100502000800013083120313A5000030A60025085D
:10051200203E84000A30F0000030F1007908F30038
:100522007808F2000A128A1104220A128A1170084B
:10053200303E831380000A30F0000030F100790869
:10054200F3007808F2000A128A113E220A128A1176
:100552007108F9007008F800FF3083120313A50731
:100562000318A60AFF30A607250A031DBC2A260A7D
:10057200031DBC2ABD2A882A2E30A2004330A300C4
:10058200A4012030F4000030F500C030F6000A1259
:100592008A119F210A128A1108000A128A11432124
:1005A2000A128A1102300A128A1159210A128A1178
:1005B200710883120313C5007008C4004408F000D8
:1005C2004508F100F201F30100300A128A11FF23FB
:1005D2000A128A11730883120313A7007208A60075
:1005E2007108A5007008A4003E30A300F930A200F3
:1005F200DB30A1002330A0000A128A11B7240A12AC
:100602008A11831203132308BD002208BC002108AB
:10061200BB002008BA000A128A1187230A128A1123
:10062200831203133B08C7003A08C6004708F900C3
:100632004608F8000A128A1182220A128A11D32A63
:100642000A128A110028C330F500CD30F400F40BF1
:10065200282BF50B282BF00133300A128A11CE21F8
:100662000A128A111B30F5009E30F400F40B372B6E
:10067200F50B372B0000F00133300A128A11CE211C
:100682000A128A11A630F400F40B452B0000F00187
:1006920033300A128A11CE210A128A11502B512BA1
:1006A2000000F00102300A128A11CE210A128A11C8
:1006B200A630F400F40B5B2B0000F00128300A1284
:1006C2008A11CE210A128A11A630F400F40B672B8C
:1006D2000000F00101300A128A11CE210A128A1199
:1006E2000430F5003D30F400F40B752BF50B752B3F
:1006F2007A2BF0010C300A128A11CE210A128A11C9
:10070200A630F400F40B832B0000080003108312C0
:1007120003133C0D3D0DC3004308031D912B922B87
:100722009B2B0030BD000030BC000030BB0000300D
:10073200BA00FE2B3A08BE003B08BF003C08C000CE
:100742003D08C1001F300310C10CC00CBF0CBE0C11
:10075200FF3E031DA42B3E08C200BC17FF30BA05A2
:10076200FF30BB05FF30BC050030BD059630C3022B
:10077200C31FBC2BBD2BD72B4308803A973E0318CF
:10078200C32BC42BC52B922B01300310BD0CBC0C08
:10079200BB0CBA0CFF3E031DC62B0130BE003E0847
:1007A200C307031DD52BD62BC52BEE2B20304302BE
:1007B200031CDC2BDD2BE92B922B0130BE00031036
:1007C200BA0DBB0DBC0DBD0DBE0BE02B0130C3023B
:1007D2004308031DED2BEE2BDE2B42080319F22BEF
:1007E200F32BFE2BBA09BB09BC09BD09BA0A0319CE
:1007F200BB0A0319BC0A0319BD0A0800F8007808ED
:100802000319042C052C192CF31F082C092C192C64
:100812007009FA007109FB007209FC007309FD00FE
:10082200FA0A0319FB0A0319FC0A0319FD0A212C0F
:100832007308FD007208FC007108FB007008FA00E2
:100842007308720471047004031D282C292C322CA5
:100852000030F3000030F2000030F1000030F00010
:10086200B62C9630F900422C0130F4007408F907D6
:1008720001300310FD0CFC0CFB0CFA0CFF3E031DB7
:100882003A2CFE307D05031D472C482C352C642C58
:100892000130F4007408F9070130FA070030031838
:1008A2000130FB07003003180130FC070030031849
:1008B2000130FD0701300310FD0CFC0CFB0CFA0C9F
:1008C200FF3E031D5C2CFF307D05031D692C6A2C45
:1008D200492C762C0130F9020130F4000310FA0D94
:1008E200FB0DFC0DFD0DF40B6F2CFC1B792C7A2CEF
:1008F200802C0230790203187F2C802C6B2C791803
:10090200832C842C8C2CFF30FA05FF30FB057F30C2
:10091200FC05FF30FD050310F90C7908F400F50120
:10092200F601F70118300310F40DF50DF60DF70D71
:10093200FF3E031D942C7408FA047508FB04760824
:10094200FC047708FD0478080319A82CA92CAE2C06
:10095200F31FAC2CAD2CAE2CFD177D08F3007C08E8
:10096200F2007B08F1007A08F000080083120313FA
:1009720023088039AD002308A8002807B300A21F6E
:10098200C32CC42CC52C331433080319C92CCA2C0C
:10099200D92C330A031DCE2CCF2CD72C0030A30028
:1009A2000030A2000030A1000030A000A217E12C0C
:1009B2000030A3000030A2000030A1000030A000EF
:1009C20027088039A8002808AD062708A8002807AC
:1009D200B200A61FED2CEE2CEF2C321432080319B4
:1009E200F32CF42C032D320A031DF82CF92C012DC3
:1009F2000030A7000030A6000030A5000030A4009F
:100A0200A6170B2D0030A7000030A6000030A5006D
:100A12000030A400320803190F2D102D152D3308B4
:100A2200031D142D152D1E2D0030A3000030A20031
:100A32000030A1000030A000FB2F2008F0002608A3
:100A42000A128A1178210A128A1171088312031379
:100A5200B9007008B8003808A800A901AA01AB01C2
:100A62002B08B1002A08B0002908AF002808AE0000
:100A72003908A800A901AA01AB012B08B7002A086E
:100A8200B6002908B5002808B4002108F00025089E
:100A92000A128A1178210A128A1171088312031329
:100AA200B9007008B8003808A800A901AA01AB0172
:100AB2002808AE07290803110318013E0319622D05
:100AC200AF072A0803110318013E0319692DB00765
:100AD2002B0803110318013E0319702DB1073908C1
:100AE200A800A901AA01AB012808B407290803112B
:100AF2000318013E03197E2DB5072A0803110318B6
:100B0200013E0319852DB6072B0803110318013E78
:100B120003198C2DB7072208F00024080A128A1143
:100B220078210A128A11710883120313B90070081E
:100B3200B8003808A800A901AA01AB012808AE072D
:100B4200290803110318013E0319A82DAF072A082B
:100B520003110318013E0319AF2DB0072B0803112F
:100B62000318013E0319B62DB1073908A800A901DF
:100B7200AA01AB012808B407290803110318013E92
:100B82000319C42DB5072A0803110318013E0319DE
:100B9200CB2DB6072B0803110318013E0319D22DE2
:100BA200B7070830A8000310AE0DAF0DB00DB10DA0
:100BB200A80BD42D2108F00024080A128A117821EA
:100BC2000A128A11710883120313B9007008B8005F
:100BD2003808A8003908A900AA01AB012808AE0705
:100BE200290803110318013E0319F82DAF072A083B
:100BF20003110318013E0319FF2DB0072B0803113F
:100C02000318013E0319062EB1072008F00025083B
:100C12000A128A1178210A128A11710883120313A7
:100C2200B9007008B8003808A8003908A900AA015C
:100C3200AB012808AE07290803110318013E031966
:100C4200232EAF072A0803110318013E03192A2E87
:100C5200B0072B0803110318013E0319312EB10707
:100C62000830A8000310AE0DAF0DB00DB10DA80BEA
:100C7200332E2008F00024080A128A1178210A1261
:100C82008A11710883120313B9007008B80038087A
:100C9200A8003908A900AA01AB012808AE07290853
:100CA20003110318013E0319572EAF072A08031137
:100CB2000318013E03195E2EB0072B080311031817
:100CC200013E0319652EB1072108F00026080A1219
:100CD2008A1178210A128A11710883120313B9004A
:100CE2007008B8003808A8003908A900AA01AB01A9
:100CF2002808B407290803110318013E0319822E9C
:100D0200B5072A0803110318013E0319892EB607F5
:100D12002B0803110318013E0319902EB70722086E
:100D2200F00025080A128A1178210A128A11710824
:100D320083120313B9007008B8003808A8003908F4
:100D4200A900AA01AB012808B40729080311031856
:100D5200013E0319AD2EB5072A0803110318013EFF
:100D62000319B42EB6072B0803110318013E031909
:100D7200BB2EB7072208F00026080A128A11782132
:100D82000A128A11710883120313B9007008B8009D
:100D92003808A8003908A900AA01AB0108300310DD
:100DA200A80DA90DAA0DAB0DFF3E031DD02E2808DC
:100DB200B407290803110318013E0319E12EB507F0
:100DC2002A0803110318013E0319E82EB6072B085F
:100DD20003110318013E0319EF2EB7072E08A800CE
:100DE2002F08A9003008AA003108AB001830031000
:100DF200AB0CAA0CA90CA80CFF3E031DF82E280868
:100E0200B407290803110318013E0319092FB50776
:100E12002A0803110318013E0319102FB6072B08E5
:100E220003110318013E0319172FB7070830A80052
:100E32000310AE0DAF0DB00DB10DA80B192F330875
:100E42003207A800A901A90D2808823EB800290886
:100E52000318013EFF3EB9004B2F0130A8000310DA
:100E6200B40DB50DB60DB70DA80B302FB11F3A2F2B
:100E72003B2F3C2F34140130A8000310AE0DAF0DF0
:100E8200B00DB10DA80B3E2FFF30B8070318B90AF9
:100E9200FF30B907B61F4E2F4F2F2E2FB201B11FB1
:100EA200532F542F702FFF302E05A800FF302F052F
:100EB200A900FF303005AA007F303105AB002B08B6
:100EC2002A04290428040319672F682F6B2FB20103
:100ED200B20A702F341C6E2F6F2F702F682F3208BA
:100EE2000319742F752FA62F0130B4070030031891
:100EF2000130B507003003180130B607003003187F
:100F02000130B707371C862F872FA62F3408A80079
:100F12003508A9003608AA003708AB000130AC003A
:100F22002B0DAB0CAA0CA90CA80CAC0B912F2B0807
:100F3200B7002A08B6002908B5002808B400013015
:100F4200B8070318B90A0030B9073908803AFF0018
:100F520080307F02031DAF2FFF303802031CB22FF7
:100F6200B32FBE2F7F3083120313B7008030B60039
:100F72000030B5000030B400EF2F8312031339089C
:100F8200803AFF0080307F02031DC92F01303802F2
:100F92000318CC2FCD2FD92F003083120313B700A3
:100FA2000030B6000030B5000030B400AD01EF2FC4
:100FB200831203133808B300FF30B405FF30B505C0
:100FC2007F30B6050030B705331CE82FE92FEA2F32
:100FD200B6173308A8000310280CB7002D08A80084
:100FE2002808B7043708A3003608A2003508A10074
:0E0FF2003408A000080083010A128A11CE2ADA
:02400E00FB3F76
:00000001FF
