:100000000A128A11F62F00308A000408840A820737
:10001000003420344D3461347434723469347834AB
:10002000203420344B346534793470346134643492
:100030002034003420344E346F3420344B34653453
:100040007934203450347234653473347334653405
:100050006434203400344B34653479342034203413
:0200600000346A
:100BAA000134831603138801091189100A128A1164
:100BBA00E7260A128A110800831603130608073863
:100BCA0086000808F03988008113831203138815F8
:100BDA000815881408140800F500F00174080A12B0
:100BEA008A1176260A128A11F001F00A75080A1289
:100BFA008A1176260A128A1108000A128A11D62543
:100C0A000A128A110A128A11E1250A128A118030FF
:100C1A00F40001300A128A114E260A128A110800BB
:100C2A000A128A1102260A128A1100300A128A113D
:100C3A002B260A128A11F90079080A128A11AC269F
:100C4A000A128A111A2E0A128A110028F2000A12AE
:100C5A008A114A270A128A11F3007208031D362ED6
:100C6A00372E392E73084D2E730A03193D2E3E2E48
:100C7A00452E7A080319422E432E452EFA01372EA5
:100C8A00730A031D492E4A2E4C2EFA01FA0AFF3026
:100C9A000800F500F00174080A128A1176260A1271
:100CAA008A11692EF001F00A750884000A128A1165
:100CBA0003200A128A110A128A1176260A128A1146
:100CCA000130FF007F08F507750884000A128A11AF
:100CDA0003200A128A11003A031D742E752E572E0C
:100CEA000800F30070187A2E7E2E8312031309155A
:100CFA00812E8312031309117308F03988008914AD
:100D0A00A630F100F10B872E00008312031389101D
:100D1A0073080F39F10003300310F10DFF3E031D74
:100D2A00912E0310710D88008914A630F100F10B81
:100D3A009C2E00008312031389101B30F2009E3090
:100D4A00F100F10BA62EF20BA62E00000800F80007
:100D5A00780A0319B12EB22EDE2EC030F4002330E9
:100D6A000A128A114E260A128A11CE2EC530F400B2
:100D7A0078080A128A11F1250A128A11E62EC5305C
:100D8A00F4007808303E0A128A11F1250A128A11F3
:100D9A00E62E7808F600F7017708003A0319D62EEE
:100DAA00C42E7608233A0319BB2E093A0319BB2E1F
:100DBA00C42EC030F40012300A128A114E260A12CA
:100DCA008A110800C330F500CD30F400F40BEB2E85
:100DDA00F50BEB2EF00133300A128A1176260A122D
:100DEA008A111B30F5009E30F400F40BFA2EF50B35
:100DFA00FA2E0000F00133300A128A1176260A12FE
:100E0A008A11A630F400F40B082F0000F0013330E9
:100E1A000A128A1176260A128A11132F142F000039
:100E2A00F00102300A128A1176260A128A11A630B5
:100E3A00F400F40B1E2F0000F00128300A128A1168
:100E4A0076260A128A11A630F400F40B2A2F000023
:100E5A00F00101300A128A1176260A128A11043028
:100E6A00F5003D30F400F40B382FF50B382F3D2FE9
:100E7A00F0010C300A128A1176260A128A11A6305B
:100E8A00F400F40B462F00000800831203138811A4
:100E9A000815881408146430F0000030F100FF309F
:100EAA00F0070318F10AFF30F107700A031D612FDA
:100EBA00710A031D612F622F542F83120313061820
:100ECA00672F682F6A2F0130F52F86186D2F6E2F26
:100EDA00702F0230F52F0619732F742F762F0330D7
:100EEA00F52F88150811881408146430F0000030B2
:100EFA00F100FF30F0070318F10AFF30F107700A1A
:100F0A00031D8B2F710A031D8B2F8C2F7E2F8312AB
:100F1A0003130618912F922F942F0430F52F861859
:100F2A00972F982F9A2F0530F52F06199D2F9E2F50
:100F3A00A02F0630F52F881508158810081464307C
:100F4A00F0000030F100FF30F0070318F10AFF301B
:100F5A00F107700A031DB52F710A031DB52FB62FAD
:100F6A00A82F831203130618BB2FBC2FBE2F0730DE
:100F7A00F52F8618C12FC22FC42F0830F52F061956
:100F8A00C72FC82FCA2F0930F52F881508158814BE
:100F9A0008106430F0000030F100FF30F007031849
:100FAA00F10AFF30F107700A031DDF2F710A031DD2
:100FBA00DF2FE02FD22F831203130618E52FE62F17
:100FCA00E82F2A30F52F8618EB2FEC2FEE2F003062
:100FDA00F52F0619F12FF22FF42F2330F52FFF30BA
:100FEA0008000A128A11D5250A128A11FA00830109
:060FFA000A128A11152EF7
:08400000FF3FFF3FFF3FFF3FC0
:02400E00FB3F76
:00000001FF
