:100000000A128A11FC2FFF1B0D2883137F188317F8
:100010000008840A0319FF0A080000308A00040857
:10002000840A820700342034203444345334313479
:10003000333430343734203420345434453453345A
:08004000543420342034003454
:100A66000A128A1164250A128A1183160313911435
:100A760008000A128A1164250A128A1183160313C2
:100A8600111408000A128A1164250A128A118316A3
:100A9600031311150800F0000A128A1164250A12C0
:100AA6008A11700883120313930008008316031338
:100AB6008801091189100A128A1133270A128A112C
:100AC6000800831603131419692D6A2D642D110865
:100AD6001F39031D6F2D702D642D080000300A127A
:100AE6008A111E260A128A11F40074087F39F4004E
:100AF6007408F10000300A128A1199250A128A1127
:100B060008000A128A11F9250A128A112A300A12D5
:100B16008A11D8250A128A112A300A128A11E02669
:100B26000A128A11892D0A128A110028F2000A1265
:100B36008A113C250A128A11D0300A128A114E25D2
:100B46000A128A1172080A128A114E250A128A118D
:100B560071080A128A114E250A128A110A128A117E
:100B660045250A128A110800F0000A128A11642526
:100B76000A128A118316031391150A128A11642523
:100B86000A128A11831203131308F1007003031D5E
:100B9600CD2DCE2DD22D831603139116D52D83166A
:100BA60003139112111671080800F40074088400EA
:100BB60002300A128A111E260A128A118313800035
:100BC600740A840001300A128A111E260A128A113A
:100BD600831380007408023E840000300A128A11D2
:100BE6001E260A128A118313800008000030831221
:100BF6000313A3000130A2008630A100A030A0009C
:100C06000A128A1178260A128A110A128A11712585
:100C16000A128A110A128A1159250A128A110130FA
:100C2600F4008030F5008030F6000A128A11492659
:100C36000A128A110800F2000A128A113C250A12C9
:100C46008A11D0300A128A114E250A128A117208A8
:100C56000A128A114E250A128A110A128A1133259E
:100C66000A128A11D1300A128A114E250A128A11E5
:100C760000300A128A11B7250A128A11F3000A12E5
:100C86008A1145250A128A1173080800F0017608B0
:100C96000A128A11AA260A128A11672EF001F00A90
:100CA6007508FF00740884000A128A1103200A12CC
:100CB6008A110A128A11AA260A128A110130F40729
:100CC6000318F50A0030F507750883120313FF00B1
:100CD600740884000A128A1103200A128A11003A43
:100CE600031D762E772E512E0800831203139415BA
:100CF6002008A4002108A5002208A6002308A700B2
:100D060002300310A40DA50DA60DA70DFF3E031D71
:100D1600842E2708F3002608F2002508F10024088F
:100D2600F0000130F7003130F6002D30F5000030CC
:100D3600F4000A128A1196270A128A117008FF3ED9
:100D46008316031393008312031394160800F3000B
:100D56007018AE2EB22E831203130915B52E831208
:100D6600031309117308F03988008914A630F100BD
:100D7600F10BBB2E000083120313891073080F3981
:100D8600F10003300310F10DFF3E031DC52E0310C5
:100D9600710D88008914A630F100F10BD02E0000E9
:100DA6008312031389101B30F2009E30F100F10B01
:100DB600DA2EF20BDA2E0000080083120313A900C4
:100DC6002908840083130008F70004300310F70C89
:100DD600FF3E031DE92E77080339303EA00029089F
:100DE600840000080F39303EA1003A30A200290ADB
:100DF60084000008F70004300310F70CFF3E031DC3
:100E0600FF2E77080739303EA300290A8400000820
:100E16000F39303EA4003A30A5002908023E84006E
:100E26000008F70004300310F70CFF3E031D162FD1
:100E360077080739303EA6002908023E84000008DC
:100E46000F39303EA700A8012030F4000030F5002D
:100E5600C430F6000A128A1149260A128A110800BD
:100E6600C330F500CD30F400F40B372FF50B372FD8
:100E7600F00133300A128A11AA260A128A111B308F
:100E8600F5009E30F400F40B462FF50B462F0000BC
:100E9600F00133300A128A11AA260A128A11A630E4
:100EA600F400F40B542F0000F00133300A128A11BB
:100EB600AA260A128A115F2F602F0000F001023065
:100EC6000A128A11AA260A128A11A630F400F40B15
:100ED6006A2F0000F00128300A128A11AA260A1287
:100EE6008A11A630F400F40B762F0000F0010130D1
:100EF6000A128A11AA260A128A110430F5003D3018
:100F0600F400F40B842FF50B842F892FF0010C309D
:100F16000A128A11AA260A128A11A630F400F40BC4
:100F2600922F000008000030FC000030FB0000306B
:100F3600FA000030F9007308720471047004031992
:100F4600A52FA62FF32FFD01FD0AB62F0130F800BD
:100F56000310F00DF10DF20DF30DF80BAB2F013070
:100F6600FF007F08FD07F31FB92FBA2FA92F013005
:100F7600F8000310F90DFA0DFB0DFC0DF80BBC2F54
:100F860073087702031DD12F72087602031DD12F35
:100F960071087502031DD12F70087402031CD42F2B
:100FA600D52FE42F7008F4027108031C710FF502A7
:100FB6007208031C720FF6027308031C730FF70204
:100FC600791401300310F30CF20CF10CF00CFF3E17
:100FD600031DE52F0130FD02031DF22FF32FBA2F5B
:100FE6007C08F3007B08F2007A08F1007908F0002B
:0A0FF600080083010A128A11842DFD
:08400000FF3FFF3FFF3FFF3FC0
:02400E00FB3F76
:00000001FF
