:100000000A128A11FC2F00308A000408840A820731
:0E0010000034483465346C346C346F34003482
:100E20000A128A1116270A128A1108008316031360
:100E30008801091189100A128A1193270A128A114E
:100E40000800F500F00174080A128A114B270A12F3
:100E50008A11F001F00A75080A128A114B270A124A
:100E60008A1108000A128A1110270A128A11853085
:100E7000F40048300A128A1121270A128A11C73059
:100E8000F40001300A128A116B270A128A11372FD7
:100E90000A128A110028F30070184F2F532F831263
:100EA00003130915562F83120313091173088800C1
:100EB0008914A630F100F10B5B2F0000831203139D
:100EC00089101B30F2009E30F100F10B652FF20B00
:100ED000652F00000800F500F00174080A128A115D
:100EE0004B270A128A11862FF001F00A7508840038
:100EF0000A128A1103200A128A110A128A114B2738
:100F00000A128A110130FF007F08F5077508840076
:100F10000A128A1103200A128A11003A031D912F26
:100F2000922F742F0800C330F500CD30F400F40B7D
:100F3000972FF50B972FF00133300A128A114B27A8
:100F40000A128A111B30F5009E30F400F40BA62F14
:100F5000F50BA62F0000F00133300A128A114B273F
:100F60000A128A111B30F5009E30F400F40BB62FE4
:100F7000F50BB62F0000F00133300A128A114B270F
:100F80000A128A111B30F5009E30F400F40BC62FB4
:100F9000F50BC62F0000F00138300A128A114B27DA
:100FA0000A128A111B30F5009E30F400F40BD62F84
:100FB000F50BD62F0000F00101300A128A114B27E1
:100FC0000A128A111B30F5009E30F400F40BE62F54
:100FD000F50BE62F0000F0010C300A128A114B27A6
:100FE0000A128A111B30F5009E30F400F40BF62F24
:100FF000F50BF62F0000080083010A128A11322F28
:02400E00FB3F76
:00000001FF
