:100000000A128A11E82FFF1B0D2883137F1883170C
:100010000008840A0319FF0A080000308A00040857
:10002000840A82070034533430342D344C34653420
:10003000663474342034533431342D3452346934BA
:100040006734683474340034533465346C34653444
:1000500063347434203444344B34503420345334B7
:10006000573400345234693467346834743420347B
:100070005334633472346F346C346C3400344C3425
:1000800065346634743420345334633472346F34DA
:060090006C346C340034F6
:100C120001348316031306083F3886000800831642
:100C220003138801091189100A128A11BE260A12B9
:100C32008A1108000A128A1110260A128A110A124F
:100C42008A110A260A128A11080043344C344334AA
:100C520044345F34443465346D346F345F34433428
:100C62006F34643465345F34243400347E088A007F
:100C72007F0882000A128A1137260A128A1180001E
:100C8200840A04087D0603190034FF0A0319FE0AC8
:100C92003B2EF30073184E2E522E831203130915A6
:100CA200552E831203130911700888008914A63087
:100CB200F100F10B5A2E00008312031389101B302E
:100CC200F2009E30F100F10B642EF20B642E000054
:100CD2000800F1007108031D6F2E702E752E83120D
:100CE200031306083F398D2E7103031D792E7A2EC8
:100CF2008C2E3F30831203130605F0003F3070063E
:100D02000319842E852E8C2E7B080319892E8A2E98
:100D12008C2EFB01702E3F3008007608F000003068
:100D22000A128A114A260A128A11AD2E7508FF008C
:100D3200740884000A128A1103200A128A11F00030
:100D420001300A128A114A260A128A110130F40766
:100D52000318F50A0030F507750883120313FF0024
:100D6200740884000A128A1103200A128A11003AB6
:100D7200031DBC2EBD2E972E0800C330F500CD30CA
:100D8200F400F40BC22EF50BC22E3330F00000300B
:100D92000A128A114A260A128A111B30F5009E3065
:100DA200F400F40BD22EF50BD22E00003330F000FB
:100DB20000300A128A114A260A128A11C730F40038
:100DC200E22EF40BE12EE52EE62E3330F000003059
:100DD2000A128A114A260A128A11EF2EF02E0000F8
:100DE2003830F00000300A128A114A260A128A119B
:100DF200A630F400F40BFB2E0000F001F00A0030E4
:100E02000A128A114A260A128A110430F5003D306C
:100E1200F400F40B0A2FF50B0A2F0F2F0C30F00001
:100E220000300A128A114A260A128A11A630F400E8
:100E3200F40B192F000008000A128A111B260A124D
:100E42008A111230F4008030F5008030F6000A1268
:100E52008A118E260A128A110130F4008030F500C0
:100E6200C030F6000A128A118E260A128A11203028
:100E720084003830F7000408F8001130F9007708D0
:100E8200840083130008FA00F70A780884007A08BD
:100E92008000F80AF90B402F00300A128A116A26E4
:100EA2000A128A1183120313B1003F30310603196B
:100EB2005B2F5C2F5E2F3108B2003E303206031DDD
:100EC200632F642FA62F2D30F4008030F500803080
:100ED200F6000A128A118E260A128A11831203134D
:100EE2002008B300B401B501831203133408013E94
:100EF200203E840083130008FF003408203E840053
:100F02007F0880000130B4070318B50A0030B50726
:100F12003508803AFF0080307F02031D922F0F3088
:100F22003402031C952F962F752F83120313330857
:100F3200AF002030F4000030F500C030F6000A1295
:100F42008A118E260A128A114D2F3D303206031D58
:100F5200AB2FAC2F4D2F2030F4008030F5008030C5
:100F6200F6000A128A118E260A128A1183120313BC
:100F72002F08B3000F30B6000030B70083120313FE
:100F82003608FF3E203E840083130008FF00360827
:100F9200203E84007F088000FF30B6070318B70A9E
:100FA200FF30B7073708803AFF0080307F02031D09
:100FB200DC2F013036020318DF2FE02FBF2F831200
:100FC20003133308A0009A2F0A128A1100288313F0
:100FD2004930FD000630FE002630FF003830840024
:100FE2000A128A113B260A128A110A128A1109264A
:0E0FF2000A128A11FB0083010A128A111D2FB8
:02400E00FB3F76
:00000001FF
