:100000000A128A11F02F00308A000408840A82073D
:100010000034203445346E34743465347234203402
:10002000503461347334733477346F3472346434DD
:0C00300020340034233400342A3400341F
:100B960001340134831603138801091189100A12DE
:100BA6008A11E1260A128A11080083160313060821
:100BB600073886000808F03988008113831203136A
:100BC600881508158814081408000A128A11CD25FC
:100BD6000A128A110A128A11D8250A128A1180303D
:100BE600F40001300A128A111E260A128A11080020
:100BF600F2000A128A1144270A128A11F3007208B7
:100C0600031D062E072E092E73081D2E730A0319BF
:100C16000D2E0E2E152E7A080319122E132E152EB2
:100C2600FA01072E730A031D192E1A2E1C2EFA011D
:100C3600FA0AFF300800F500F00174080A128A115A
:100C460074260A128A11392EF001F00A75088400FA
:100C56000A128A1103200A128A110A128A117426AC
:100C66000A128A110130FF007F08F5077508840013
:100C76000A128A1103200A128A11003A031D442E11
:100C8600452E272E0800F8010A128A11E8250A12B5
:100C96008A1101300A128A11FB250A128A11F900FB
:100CA6000130FF007F08F8077803031D5B2E5C2EDA
:100CB6004C2EF801790A0319612E622E6A2E7908E4
:100CC600F70077080A128A11AA260A128A117908E9
:100CD6000A128A11AA260A128A114C2E0A128A119F
:100CE6000028F3007018782E7C2E83120313091542
:100CF6007F2E8312031309117308F03988008914B3
:100D0600A630F100F10B852E000083120313891023
:100D160073080F39F10003300310F10DFF3E031D78
:100D26008F2E0310710D88008914A630F100F10B87
:100D36009A2E00008312031389101B30F2009E3096
:100D4600F100F10BA42EF20BA42E00000800F60011
:100D5600760A0319AF2EB02ED22E7603031DB42EBB
:100D6600B52EC32E7B08C03EF40014300A128A1139
:100D76001E260A128A110130FF007F08FB07E02EAB
:100D86007608031DC72EC82EE02E7B08C03EF40051
:100D960012300A128A111E260A128A11BE2EF0017C
:100DA600C0300A128A1174260A128A11F001F03034
:100DB6000A128A1174260A128A110800C330F50035
:100DC600CD30F400F40BE52EF50BE52EF0013330B3
:100DD6000A128A1174260A128A111B30F5009E30F7
:100DE600F400F40BF42EF50BF42E0000F001333072
:100DF6000A128A1174260A128A11A630F400F40B1C
:100E0600022F0000F00133300A128A1174260A12EA
:100E16008A110D2F0E2F0000F00102300A128A11DE
:100E260074260A128A11A630F400F40B182F00005B
:100E3600F00128300A128A1174260A128A11A63085
:100E4600F400F40B242F0000F00101300A128A117D
:100E560074260A128A110430F5003D30F400F40BB2
:100E6600322FF50B322F372FF0010C300A128A1170
:100E760074260A128A11A630F400F40B402F0000E3
:100E860008008312031388110815881408146430A7
:100E9600F0000030F100FF30F0070318F10AFF30D0
:100EA600F107700A031D5B2F710A031D5B2F5C2F70
:100EB6004E2F831203130618612F622F642F013001
:100EC600EF2F8618672F682F6A2F0230EF2F06192B
:100ED6006D2F6E2F702F0330EF2F88150811881491
:100EE60008146430F0000030F100FF30F0070318FA
:100EF600F10AFF30F107700A031D852F710A031DE1
:100F0600852F862F782F8312031306188B2F8C2F8D
:100F16008E2F0430EF2F8618912F922F942F0530A5
:100F2600EF2F0619972F982F9A2F0630EF2F881537
:100F36000815881008146430F0000030F100FF3006
:100F4600F0070318F10AFF30F107700A031DAF2FEF
:100F5600710A031DAF2FB02FA22F83120313061899
:100F6600B52FB62FB82F0730EF2F8618BB2FBC2F03
:100F7600BE2F0830EF2F0619C12FC22FC42F0930FC
:100F8600EF2F88150815881408106430F00000301B
:100F9600F100FF30F0070318F10AFF30F107700A7D
:100FA600031DD92F710A031DD92FDA2FCC2F8312D7
:100FB60003130618DF2FE02FE22F2A30EF2F8618B3
:100FC600E52FE62FE82F0030EF2F0619EB2FEC2F39
:100FD600EE2F2330EF2FFF3008000A128A11CB259F
:100FE6000A128A11FA000A128A11CC250A128A11EB
:0A0FF600FB0083010A128A11462E47
:02400E00FB3F76
:00000001FF
