:100000000A128A11F62F00308A000408840A820737
:100010000034203420342034203420342034203460
:100020002034203420342034203420342034203430
:100030002034003445346E347434653472342034E2
:100040004D346F34623469346C34653420344E344A
:1000500075346D3400344E346F3420346B34653471
:1000600079342034703472346534733473346534C5
:10007000643400344B346534793420343A342034D9
:0200800000344A
:100B5E000134831603138801091189100A128A11B0
:100B6E00E0260A128A1108000A128A11B0250A120A
:100B7E008A110A128A11C6250A128A1108008316D2
:100B8E0003130808F0398800060807388600811319
:100B9E008312031388150815881408140800F5002D
:100BAE007408F00000300A128A115F260A128A11A8
:100BBE007508F00001300A128A115F260A128A1196
:100BCE0008000A128A11BB250A128A118030F4001D
:100BDE0012300A128A110D260A128A1101300A12D7
:100BEE008A1136260A128A11FB007B0A0319002E7F
:100BFE00012E032E7B08FA007A080A128A11952616
:100C0E000A128A11F52D0A128A110028F5007408AD
:100C1E00F00000300A128A115F260A128A11292E5C
:100C2E00750884000A128A1103200A128A11F00034
:100C3E0001300A128A115F260A128A110130FF0052
:100C4E007F08F507750884000A128A1103200A121C
:100C5E008A11003A031D342E352E172E0800F80087
:100C6E000A128A114A270A128A11F9007808031DFE
:100C7E00412E422E442E79085E2E7803031D482EF7
:100C8E00492E5D2E790A03194D2E4E2E552E7C08B7
:100C9E000319522E532E552EFC01422E790A031D96
:100CAE00592E5A2E5D2EFC01FC0A5D2EFF300800D7
:100CBE00F3007318632E672E8312031309156A2E21
:100CCE008312031309117008F03988008914A630B5
:100CDE00F100F10B702E00008312031389107008BF
:100CEE000F39F10003300310F10DFF3E031D7A2E74
:100CFE000310710D88008914A630F100F10B852EBA
:100D0E0000008312031389101B30F2009E30F10095
:100D1E00F10B8F2EF20B8F2E00000800F800780AD0
:100D2E0003199A2E9B2ED72EC030F40032300A12A1
:100D3E008A110D260A128A11C72EC030F400013016
:100D4E000A128A110D260A128A11C830F400780888
:100D5E000A128A11D6250A128A11DF2EC030F4002B
:100D6E0001300A128A110D260A128A11C830F400B7
:100D7E007808303E0A128A11D6250A128A11DF2E01
:100D8E007808F600F7017708003A0319CF2EB52E32
:100D9E007608233A0319A42E093A0319A42EB52E68
:100DAE00C030F40023300A128A110D260A128A115D
:100DBE000800C330F500CD30F400F40BE42EF50B33
:100DCE00E42E3330F00000300A128A115F260A1228
:100DDE008A111B30F5009E30F400F40BF42EF50B47
:100DEE00F42E00003330F00000300A128A115F2614
:100DFE000A128A11A630F400F40B032F00003330D0
:100E0E00F00000300A128A115F260A128A110F2F83
:100E1E00102F00000230F00000300A128A115F26F7
:100E2E000A128A11A630F400F40B1B2F0000283092
:100E3E00F00000300A128A115F260A128A11A630BB
:100E4E00F400F40B282F0000F001F00A00300A1213
:100E5E008A115F260A128A110430F5003D30F40023
:100E6E00F40B372FF50B372F3C2F0C30F0000030E2
:100E7E000A128A115F260A128A11A630F400F40BA8
:100E8E00462F0000080083120313881108158814DA
:100E9E0008146430F0000030F100FF30F007031842
:100EAE00F10AFF30F107700A031D612F710A031D4D
:100EBE00612F622F542F831203130618672F682F8A
:100ECE006A2F0130F52F86186D2F6E2F702F02307E
:100EDE00F52F0619732F742F762F0330F52F8815E3
:100EEE000811881408146430F2000030F300FF304B
:100EFE00F2070318F30AFF30F307720A031D8B2F54
:100F0E00730A031D8B2F8C2F7E2F8312031306184B
:100F1E00912F922F942F0430F52F8618972F982FFC
:100F2E009A2F0530F52F06199D2F9E2FA02F0630D4
:100F3E00F52F88150815881008146430F400003059
:100F4E00F500FF30F4070318F50AFF30F507740AB1
:100F5E00031DB52F750A031DB52FB62FA82F8312AB
:100F6E0003130618BB2FBC2FBE2F0730F52F861884
:100F7E00C12FC22FC42F0830F52F0619C72FC82F27
:100F8E00CA2F0930F52F88150815881408106430FB
:100F9E00F6000030F700FF30F6070318F70AFF30AF
:100FAE00F707760A031DDF2F770A031DDF2FE02FC9
:100FBE00D22F831203130618E52FE62FE82F2A30BF
:100FCE00F52F8618EB2FEC2FEE2F0030F52F06198C
:100FDE00F12FF22FF42F2330F52FFF3008000A12D5
:100FEE008A11AF250A128A11FC0083010A128A1196
:020FFE00E82DDC
:02400E00FB3F76
:00000001FF
