:060000000A128A11E42F30
:1005BE008316031306083F38860008000A128A11B4
:1005CE0017230A128A1183160313911408000A12B4
:1005DE008A1117230A128A118316031311140800A5
:1005EE000A128A1117230A128A1183160313111580
:1005FE000800F0000A128A1117230A128A117008D5
:10060E008312031393000800831603138801050851
:10061E00033985008312031305080339850008008A
:10062E008316031314191C2B1D2B172B11081F399E
:10063E00031D222B232B172B08003F3406345B346B
:10064E004F3466346D347D3407347F346F34083460
:10065E00083401343F343F343F343F347E088A003F
:10066E007F0882000A128A1135230A128A1180002D
:10067E00840A04087D0603190034FF0A0319FE0AD2
:10068E00392B00300A128A11E2230A128A11FC0059
:10069E007C087F39FC007C0883120313AD00003008
:1006AE000A128A117C230A128A1108000A128A1170
:1006BE000B230A128A110A128A11DF220A128A11D8
:1006CE00003083120313B0000130AF008630AE004D
:1006DE00A030AD000A128A110D240A128A110A12D4
:1006EE008A1148230A128A110800FB000A128A1185
:1006FE00EE220A128A11A0300A128A1100230A125F
:10070E008A117B080A128A1100230A128A11831297
:10071E0003132D080A128A1100230A128A110A12D3
:10072E008A11F7220A128A110800F0000A128A11A1
:10073E0017230A128A118316031391150A128A11AE
:10074E0017230A128A11831203131308F100700380
:10075E00031DB22BB32BB72B831603139116BA2B93
:10076E00831603139112111671080800F801F9018E
:10077E00741CC22BC32BC92B7608F8070318F90A71
:10078E007708F90701300310F60DF70DFF3E031D34
:10079E00CA2B01300310F50CF40CFF3E031DD12BB8
:1007AE0074087504031DDC2BDD2BBF2B7908F500B7
:1007BE007808F4000800F2000A128A11EE220A12DA
:1007CE008A11A0300A128A1100230A128A117208A5
:1007DE000A128A1100230A128A110A128A11E522BC
:1007EE000A128A11A1300A128A1100230A128A11E2
:1007FE0000300A128A119C230A128A11F3000A127F
:10080E008A11F7220A128A11730808008312031341
:10081E0094152D08B1002E08B2002F08B300300831
:10082E00B40002300310B10DB20DB30DB40DFF3E86
:10083E00031D192C3408A3003308A2003208A100AE
:10084E003108A0000130A7003130A6002D30A500E0
:10085E000030A4000A128A113E250A128A11831250
:10086E0003132008FF3E8316031393008312031312
:10087E0094160800F1007108031D462C472C4C2CD1
:10088E008312031306083F39932C0130831203138E
:10089E00DA070318DB0A0030DB073F300605F000ED
:1008AE003F30700603195C2C5D2C662C4D08031925
:1008BE00612C622C662CCD01DA01DB01472C3F3016
:1008CE000605F0003E307006031D6E2C6F2C822C38
:1008DE005B08803AFF0080307F02031D782C333096
:1008EE005A02031C7B2C7C2C822C83120313DA01FC
:1008FE00DB011130932C3F30831203130605F000F9
:10090E003F307006031D8C2C8D2C922CDA01DB01EE
:10091E00CD01CD0A922C3F30080073087204710489
:10092E00700403199B2C9C2CDF2CF901F90AAC2CBA
:10093E000130F8000310F00DF10DF20DF30DF80B70
:10094E00A12C0130FF007F08F907F31FAF2CB02C4C
:10095E009F2C73087702031DBE2C72087602031DAE
:10096E00BE2C71087502031DBE2C70087402031C88
:10097E00C12CC22CD02C7008F4027108031C710F0C
:10098E00F5027208031C720FF6027308031C730F34
:10099E00F70201300310F30CF20CF10CF00CFF3ED9
:1009AE00031DD12C0130F902031DDE2CDF2CB02CDF
:1009BE007708F3007608F2007508F1007408F0006D
:1009CE000800F800F90179087807F0007008840033
:1009DE00831300088312031388000430F000790A91
:1009EE00FA2C0310F00DFF3E031DF82C05080339F9
:1009FE00700485000030F7000030F6000030F5007E
:100A0E00FA30F4000130F0000030F1000030F20056
:100A1E000030F3007008F4027108031C710F182DDA
:100A2E00192DF5027208031C720F1E2D1F2DF602D2
:100A3E007308031C730F242D252DF702740A031D52
:100A4E00322D750A031D322D760A031D322D770ABB
:100A5E00031D322D332D092D0130FF007F08F907BC
:100A6E0004307902031C3C2D3D2DEA2C0800003089
:100A7E0083120313AB000030AA000030A90000302F
:100A8E00A800230822042104200403194F2D502D01
:100A9E009D2DAC01AC0A602D0130FA000310A00DA3
:100AAE00A10DA20DA30DFA0B552D0130FF007F08ED
:100ABE00AC07A31F632D642D532D0130FA000310D4
:100ACE00A80DA90DAA0DAB0DFA0B662D2308270252
:100ADE00031D7B2D22082602031D7B2D21082502D6
:100AEE00031D7B2D20082402031C7E2D7F2D8E2DB1
:100AFE002008A4022108031C210FA5022208031CB2
:100B0E00220FA6022308031C230FA702281401306C
:100B1E000310A30CA20CA10CA00CFF3E031D8F2DE5
:100B2E000130AC02031D9C2D9D2D642D2B08A300BE
:100B3E002A08A2002908A1002808A00008000A120D
:100B4E008A115D230A128A1101300A128A11412478
:100B5E000A128A11FD003E307D06031DB72DB82DF9
:100B6E00982E831203135508540453045204031D84
:100B7E00C12DC22DEB2D0130D607003003180130E8
:100B8E00D707003003180130D807003003180130A2
:100B9E00D9075908031DE12D5808031DE12D5708EB
:100BAE00031DE12D0A305602031DDD2D031CE02D21
:100BBE00E12DEB2D003083120313D9000030D80045
:100BCE000030D7000030D600003083120313D5005A
:100BDE000030D4000030D3000030D2000030F300DB
:100BEE000030F2000030F1000A30F0005908F70032
:100BFE005808F6005708F5005608F4000A128A1134
:100C0E0094240A128A117008413E8400831300084E
:100C1E0083120313D1000030A3000030A200003075
:100C2E00A1000A30A0005908F7005808F60057082E
:100C3E00F5005608F4000030F3000030F2000030EA
:100C4E00F1006430F0000A128A1194240A128A11FB
:100C5E00730883120313A7007208A6007108A5007B
:100C6E007008A4000A128A113E250A128A118312F4
:100C7E0003132008413E840083130008D000003087
:100C8E00A3000030A2000030A1006430A00059087B
:100C9E00F7005808F6005708F5005608F400003023
:100CAE00F3000030F2000330F100E830F0000A12D9
:100CBE008A1194240A128A11730883120313A7004F
:100CCE007208A6007108A5007008A4000A128A1105
:100CDE003E250A128A11831203132008413E840016
:100CEE0083130008CF000030A3000030A2000330B1
:100CFE00A100E830A0005908A7005808A600570820
:100D0E00A5005608A4000A128A113E250A128A115D
:100D1E00831203132008413E840083130008CE0083
:100D2E00DA2F3D307D06031D9D2E9E2E512F003055
:100D3E00F3000030F2000030F1000A30F0008312B0
:100D4E0003135908F7005808F6005708F50056081F
:100D5E00F4000A128A1194240A128A11700883125E
:100D6E000313AD0004300A128A117C230A128A1171
:100D7E00003083120313A3000030A2000030A10044
:100D8E000A30A0005908F7005808F6005708F50079
:100D9E005608F4000030F3000030F2000030F1008D
:100DAE006430F0000A128A1194240A128A11730810
:100DBE0083120313A7007208A6007108A50070081D
:100DCE00A4000A128A113E250A128A1183120313F5
:100DDE002008AD0003300A128A117C230A128A11F0
:100DEE00003083120313A3000030A2000030A100D4
:100DFE006430A0005908F7005808F6005708F500AF
:100E0E005608F4000030F3000030F2000330F10019
:100E1E00E830F0000A128A1194240A128A1173081B
:100E2E0083120313A7007208A6007108A5007008AC
:100E3E00A4000A128A113E250A128A118312031384
:100E4E002008AD0002300A128A117C230A128A1180
:100E5E00003083120313A3000030A2000330A10060
:100E6E00E830A0005908A7005808A6005708A500AA
:100E7E005608A4000A128A113E250A128A118312FC
:100E8E0003132008AD0001300A128A117C230A12C6
:100E9E008A11DA2F11307D06031D562F572FDA2FA8
:100EAE0001300A128A11E2230A128A1183120313E5
:100EBE00B500B6013508F4003608F500E830F60046
:100ECE000330F7000A128A11BD230A128A11740820
:100EDE0083120313B7007508B80002300A128A1184
:100EEE00E2230A128A1183120313B900BA013908D8
:100EFE00F4003A08F5006430F6000030F7000A12EC
:100F0E008A11BD230A128A1174088312031337073C
:100F1E00BB0075080318750A3807BC0003300A12A7
:100F2E008A11E2230A128A1183120313BD00BE0135
:100F3E003D08F4003E08F5000A30F6000030F700D8
:100F4E000A128A11BD230A128A117408831203131E
:100F5E003B07BF0075080318750A3C07C000043034
:100F6E000A128A11E2230A128A11831203133F070F
:100F7E00D6000030031801304007D700D801D71B28
:100F8E00D8035808D9000030D5000030D400003006
:100F9E00D3000130D2003F30D1003F30D0003F307F
:100FAE00CF003F30CE004E300A128A11E8240A12CA
:100FBE008A11AB2D0A128A11002883135230FD00BC
:100FCE000330FE002430FF00413084000A128A11E3
:100FDE0039230A128A11D201D301D401D501D601C7
:100FEE00D701D801D901DA01DB0183010A128A1176
:020FFE00A62D1E
:08400000FF3FFF3FFF3FFF3FC0
:02400E00FB3F76
:00000001FF
