:060000000A128A110E280D
:10000800FE00030EF8000A08F9007F08FA000A1239
:100018008A11522C0A128A1111280A128A113C25B7
:100028000A128A11C9000A128A113D250A128A1178
:10003800CA000A128A113E250A128A11CB000A1236
:100048008A113F250A128A11CC000A128A1140250A
:100058000A128A11CD008313203084003A300A1224
:100068008A1134250A128A11FB01FC0183010A1244
:100078008A113E28831203134A08C3004908C200A4
:100088000A128A11E2240A128A1101300A128A110C
:10009800BB240A128A1183120313C800480A0319E1
:1000A80056285728572836083704031D5C285D282A
:1000B8004928480A0319612862289E283508803A89
:1000C800FF0080307F02031D6B28083034020318BC
:1000D8006E286F289E28831203133408203E84005C
:1000E8004808831380003408C03EBE002A300A1234
:1000F8008A11FB240A128A11831203133408283E3A
:10010800840083130008C1003408203E84000008DE
:100118004106031D9028912897280130B20703183B
:10012800B30A0030B3070130B4070318B50A00302A
:10013800B507492808308312031334063504031D14
:10014800A628A728E82835083306031DAD28340853
:100158003206031DB028B128E828BA010C300A126B
:100168008A11D6230A128A1183120313BA010130A5
:100178000A128A11D6230A128A11423083120313F3
:10018800BE008030BF008130C0000A128A11882466
:100198000A128A11123083120313BE008030BF0086
:1001A800C030C0000A128A1188240A128A1101304C
:1001B80083120313B6000030B7008B1EE428E5282D
:1001C80049288B1286134928083034063504031D44
:1001D800EE28EF286E2935083306031DF528340864
:1001E80032060319F828F9286E293808023EB800A3
:1001F80039080318013E003EB9008B1A0429052965
:1002080006298B160130B0070318B10A0030B10770
:10021800B201B301B401B5010130CB000030CC000C
:10022800BA0101300A128A11D6230A128A118312DE
:100238000313BA010C300A128A11D6230A128A1142
:10024800513083120313BE008030BF008030C000DD
:100258000A128A1188240A128A114230831203135F
:10026800BE000030BF008930C0000A128A118824FD
:100278000A128A11831203134208013EC200003099
:10028800C7000030C6000030C5000030C40001308F
:1002980083120313C407003003180130C507003068
:1002A80003180130C607003003180130C707470894
:1002B800031D6D294608031D6D2901304502031DE4
:1002C8006929F4304402031D6929031C6C296D292E
:1002D8004B294928053030063104031D7429752936
:1002E800A629BA010C300A128A11D6230A128A11D9
:1002F80083120313BA0101300A128A11D6230A1293
:100308008A11233083120313BE008030BF0080306F
:10031800C0000A128A1188240A128A110130831235
:100328000313BE008030BF00C030C0000A128A111B
:1003380088240A128A11013083120313B600003090
:10034800B7004928480A031DAA29AB29E02934081F
:100358003504031DB029B129E0294B084C040319C1
:10036800B629B729E029CB01CC01BA0101300A121C
:100378008A11D6230A128A11333083120313BE005E
:100388008030BF008030C0000A128A1188240A1207
:100398008A1183120313BA01C0300A128A11D623B4
:1003A8000A128A1183120313BA010F300A128A1132
:1003B800D6230A128A11492849280A128A110E28B6
:1003C8008312031388110815881408146430BA00BE
:1003D8000030BB00FF30BA070318BB0AFF30BB0769
:1003E8003A0A031DFB293B0A031DFB29FC29EE29B8
:1003F8000618FF29002A022A0130872A8618052AAA
:10040800062A082A0230872A06190B2A0C2A0E2ADD
:100418000330872A88150811881408146430BA0034
:100428000030BB00FF30BA070318BB0AFF30BB0718
:100438003A0A031D232A3B0A031D232A242A162AC3
:100448000618272A282A2A2A0430872A86182D2AB5
:100458002E2A302A0530872A0619332A342A362AC2
:100468000630872A88150815881008146430BA00E1
:100478000030BB00FF30BA070318BB0AFF30BB07C8
:100488003A0A031D4B2A3B0A031D4B2A4C2A3E2AD3
:1004980006184F2A502A522A0730872A8618552AC2
:1004A800562A582A0830872A06195B2A5C2A5E2AA7
:1004B8000930872A88150815881408106430BA008E
:1004C8000030BB00FF30BA070318BB0AFF30BB0778
:1004D8003A0A031D732A3B0A031D732A742A662AE3
:1004E8000618772A782A7A2A2A30872A86187D2AAF
:1004F8007E2A802A0030872A0619832A842A862A97
:100508002330872AFF300800C33083120313BF004B
:10051800CC30BE00BE0B8E2ABF0B8E2A0000831281
:100528000313BA0133300A128A1114240A128A11E9
:100538001B3083120313BF009D30BE00BE0BA22ADE
:10054800BF0BA22AA72A83120313BA0133300A1257
:100558008A1114240A128A11A53083120313BE00CB
:10056800BE0BB42AB72A83120313BA0133300A1216
:100578008A1114240A128A11C12AC22A000083127D
:100588000313BA0102300A128A1114240A128A11BA
:10059800A53083120313BE00BE0BD02AD32A8312C0
:1005A8000313BA0128300A128A1114240A128A1174
:1005B800A53083120313BE00BE0BE02AE32A831280
:1005C8000313BA0101300A128A1114240A128A117B
:1005D800043083120313BF003D30BE00BE0BF22A65
:1005E800BF0BF22A83120313BA010C300A128A11C4
:1005F80014240A128A11A53083120313BE00BE0BFD
:10060800032B062B0800FF1B112B83137F1883175E
:100618000008840A0319FF0A080003308A00040846
:10062800840A820700345234653473346534743470
:10063800203479346F3475347234203462346F3432
:100648006134723464340034433472346134633452
:100658006B3465346434203474346834653420343D
:1006680043346F3464346534003450346134733443
:10067800733477346F3472346434203446346134DC
:1006880069346C3465346434003445346E347434FD
:1006980065347234203450346134733473347734AD
:1006A8006F347234643400344534783463346534D8
:1006B8006C346C3465346E347434213420345934D9
:1006C8006F347534003441347434743465346D34A3
:1006D800703474340034F501F11F732B742B7B2BA9
:1006E800F009F109F00A0319F10AF501F50AF31FF7
:1006F8007E2B7F2B882BF209F309F20A0319F30AE0
:100708000130FF007F08F506F601F7017008710453
:1007180003198F2B902BC72BF401F40A9E2B013061
:100728000310F00DF10DFF3E031D942B0130FF0067
:100738007F08F407F11FA12BA22B932B0130031084
:10074800F60DF70DFF3E031DA32B71087302031D61
:10075800AF2B70087202031CB22BB32BBA2B700894
:10076800F2027108031CF303F3027614013003103C
:10077800F10CF00CFF3E031DBB2B0130F402031DEE
:10078800C62BC72BA22B75080319CB2BCC2BD12B2F
:10079800F609F709F60A0319F70A7708F100760847
:1007A800F000080083120313BD003A18DC2BE02B7D
:1007B800831203130915E32B8312031309113D0850
:1007C800F03988008914A53083120313BB00BB0BD2
:1007D800EB2BEE2B8312031389103D080F39BB0056
:1007E80003300310BB0DFF3E031DF52B03103B0D1B
:1007F80088008914A53083120313BB00BB0B022C9D
:10080800052C8312031389101B3083120313BC00B9
:100818009D30BB00BB0B0E2CBC0B0E2C132C080000
:1008280083120313BD003A181A2C1E2C83120313CB
:100838000915212C8312031309113D08F03988008A
:100848008914A53083120313BB00BB0B292C2C2C55
:100858008312031389103D080F39BB0003300310BE
:10086800BB0DFF3E031D332C03103B0D880089147C
:10087800A53083120313BB00BB0B402C432C8312FF
:10088800031389101B3083120313BC009D30BB0077
:10089800BB0B4C2CBC0B4C2C512C08000B1D552CA5
:1008A800562C7F2C831203130108083E8100390857
:1008B800F1003808F0002030F2004E30F3000A1240
:1008C8008A116F230A128A110130FB070318FC0AE8
:1008D8000030FC0771087C06031D742C70087B0629
:1008E800031D772C782C7E2CFB01FC0180308312B1
:1008F800031386060B117A08FF0079088A00780E20
:100908008300FE0E7E0E090083120313BA0140080D
:100918000A128A1114240A128A11AA2CBA01BA0AD4
:100928003F08FF003E0884000A128A1107230A12B2
:100938008A110A128A1114240A128A1101308312A8
:100948000313BE070318BF0A0030BF07831203133F
:100958003F08FF003E0884000A128A1107230A1282
:100968008A11003A031DB92CBA2C922C0800831264
:100978000313BC000A128A11E4210A128A11831295
:100988000313BD003C08031DCA2CCB2CCD2C3D08FD
:10099800E12C3D0A0319D12CD22CD92C4D0803196E
:1009A800D62CD72CD92CCD01CB2C3D0A031DDD2C00
:1009B800DE2CE02CCD01CD0AFF300800831603138E
:1009C80086138312031306087F3986008B170A12D1
:1009D8008A1120250A128A110A128A1110250A1270
:1009E8008A110A128A112B250A128A110800831209
:1009F8000313BF00BA013E080A128A1114240A120E
:100A08008A1183120313BA01BA0A3F080A128A111B
:100A180014240A128A1108008316031306080738DB
:100A280086000808F039880081138312031388159B
:100A3800081588140814080083160313880109117F
:100A480089100A128A1188220A128A11080083164C
:100A580003138112811506308312031381000800E5
:100A680064008001840A0406031900340406352D45
:0A0A7800313400340134003401343D
:02400E00FB3F76
:00000001FF
