:060000000A128A11D82F3C
:1009D400D234043401348316031306083F388600E6
:1009E4008312031306083F38860008000A128A118E
:1009F4000F250A128A110A128A11ED240A128A1189
:100A040008003F3406345B344F3466346D347D342F
:100A140007347F346F340834083483160313880191
:100A24008312031388018316031305080339850011
:100A34000330FF007F0883120313850508007E0836
:100A44008A007F0882000A128A1121250A128A115B
:100A54008000840A04087D0603190034FF0A031980
:100A6400FE0A252DF1007108031D392D3A2D3F2D65
:100A74008312031306083F39572D7103031D432DB9
:100A8400442D562D3F30831203130605F0003F30EA
:100A9400700603194E2D4F2D562D7C080319532D26
:100AA400542D562DFC013A2D3F300800F300F4017B
:100AB40074087307F000700884008313000883121D
:100AC400031388000430F000740A6A2D0310F00D3B
:100AD400FF3E031D682D050803397004850090301E
:100AE400F1000130F200FF30F1070318F20AFF3081
:100AF400F207710A031D822D720A031D822D832DB4
:100B0400752D0130FF007F08F40704307402031CC4
:100B14008C2D8D2D5A2D0800F501F31F922D932D48
:100B24009A2DF209F309F20A0319F30AF501F50AF9
:100B3400F11F9D2D9E2DA32DF009F109F00A031933
:100B4400F10A700871040319A82DA92DD82DF401F8
:100B5400F40AB72D01300310F00DF10DFF3E031D13
:100B6400AD2D0130FF007F08F407F11FBA2DBB2D16
:100B7400AC2D71087302031DC12D70087202031C91
:100B8400C42DC52DCB2D7008F2027108031CF3038C
:100B9400F30201300310F10CF00CFF3E031DCC2DC9
:100BA4000130F402031DD72DD82DBB2D7508031970
:100BB400DC2DDD2DE22DF209F309F20A0319F30A03
:100BC4007308F1007208F00008000A128A11F82470
:100BD4000A128A1183120313AC01AD01B601B701E5
:100BE4003F30B300203084003830F6000408F700AA
:100BF4000C30F8007608840083130008F900F60A24
:100C04007708840079088000F70AF80BFC2D00307F
:100C14000A128A1134250A128A1183120313AE00B0
:100C24003F302E060319172E182E1A2E2E08B30045
:100C34000130AC070318AD0A0030AD07C9302C06EB
:100C44002D04031D262E272ECE2FAC01AD013E30E0
:100C5400330603192E2E2F2E352E3F303306031D57
:100C6400342E352EB42E4608031D392E3A2EB42EBA
:100C7400C501C50AC40147080319412E422E4B2E53
:100C84003608FD3EB60037080318013EFF3EB700A4
:100C9400C7010C30F0000030F1003708F3003608CB
:100CA400F2000A128A118E250A128A117008203E57
:100CB40084008313000883120313AF000C30F00088
:100CC4000030F1003608013EF20037080318013EF7
:100CD400003EF3000A128A118E250A128A11700846
:100CE400203E84008313000883120313B0000C30E9
:100CF400F0000030F1003608023EF2003708031815
:100D0400013E003EF3000A128A118E250A128A114E
:100D14007008203E84008313000883120313B1007B
:100D24000C30F0000030F1003608033EF2003708C2
:100D34000318013E003EF3000A128A118E250A129E
:100D44008A117008203E8400831300088312031361
:100D5400B2000130B6070318B70A0030B7070230F3
:100D64008800CE2F3D303306031DB92EBA2E942FA2
:100D74004608031DBE2EBF2E942FC401C40AC5010C
:100D84004708031DC62EC72ED12E3608033EB600D3
:100D940037080318013E003EB700C701C70A0C30EC
:100DA400F0000030F1003608FD3EF2003708031869
:100DB400013EFF3EF3000A128A118E250A128A119F
:100DC40070080C3E83120313B40071080318013E2B
:100DD400003EB5000C30F0000030F1003508F3009F
:100DE4003408F2000A128A118E250A128A11700838
:100DF400203E84008313000883120313AF000C30D9
:100E0400F0000030F1003608FE3EF2003708031807
:100E1400013EFF3EF3000A128A118E250A128A113E
:100E240070080C3E83120313B40071080318013ECA
:100E3400003EB5000C30F0000030F1003508F3003E
:100E44003408F2000A128A118E250A128A117008D7
:100E5400203E84008313000883120313B0000C3077
:100E6400F0000030F1003608FF3EF20037080318A6
:100E7400013EFF3EF3000A128A118E250A128A11DE
:100E840070080C3E83120313B40071080318013E6A
:100E9400003EB5000C30F0000030F1003508F300DE
:100EA4003408F2000A128A118E250A128A11700877
:100EB400203E84008313000883120313B1000C3016
:100EC400F0000030F1003708F3003608F2000A128F
:100ED4008A118E250A128A1170080C3E831203139C
:100EE400B40071080318013E003EB5000C30F00058
:100EF4000030F1003508F3003408F2000A128A11B8
:100F04008E250A128A117008203E8400831300087B
:100F140083120313B200FF30B6070318B70AFF3079
:100F2400B707CE2F3B302E06031D992F9A2FCE2FB5
:100F34004608031D9E2F9F2FC72F44080319A32F74
:100F4400A42FAC2F3608FD3EB60037080318013E27
:100F5400FF3EB700C601C60A3608203E840083134C
:100F64000008AF003608013E203E84000008B000AF
:100F74003608023E203E84000008B1003608033ED5
:100F8400203E84000008B200CE2F4603031DCB2F61
:100F9400CC2FCE2FC601CE2F2F300A128A115825FE
:100FA4000A128A11092E0A128A1100288313443066
:100FB400FD000530FE000330FF00383084000A12C3
:100FC4008A1125250A128A110A128A11EA240A12A0
:100FD4008A11FA000A128A11EB240A128A11FB0000
:100FE4000A128A11EC240A128A11FC00C401C501F8
:0C0FF400C601C70183010A128A11E72D13
:02400E00FB3F76
:00000001FF
