:100000000A128A11EA2F00308A000408840A820743
:10001000003455344134523454342034543465342B
:1000200073347434203443346F34643465340A34A4
:0200300000349A
:1008A80064008001840A0406031900340406552CE8
:1008B800831203138C1E612C622C5C2C8C121A0878
:1008C8000800831603138801091189100A128A1176
:1008D80013260A128A110800F00070088312031305
:1008E80099000C1E782C792C752C0C1208000A1211
:1008F8008A1165240A128A11003083120313A30097
:100908000030A2002530A1008030A0000A128A1110
:1009180091250A128A1101300A128A11B6240A1284
:100928008A110B178B1708007008F2007108F30082
:10093800A32C0130F0070318F10A0030F107700802
:1009480084008317711C83130008031DAC2CAD2C85
:100958009D2C72087002F0007308031C730A710260
:10096800F1000800F100C82C710884000A128A11ED
:1009780003200A128A110A128A1170240A128A1193
:100988000130FF007F08F107710884000A128A11FC
:1009980003200A128A11003A031DD32CD42CB82C38
:1009A8000800F500F00174080A128A1125250A12B8
:1009B8008A11EC2CF001F00A7508840000080A126C
:1009C8008A1125250A128A110130FF007F08F507D0
:1009D8007508840083130008031DF32CF42CDE2C07
:1009E8000800F200F30173087207F0007008840031
:1009F8000A128A115C240A128A118317800073086C
:100A08007207F000700884000008F1000130FF0050
:100A18007F08F3070A3071060319132D142D1A2DB8
:100A28000D307106031D192D1A2DF72C0130FF000A
:100A38007F08F30773087207F000700884008001CC
:100A48000800F3007018292D2D2D831203130915A2
:100A5800302D8312031309117308F03988008914A3
:100A6800A630F100F10B362D000083120313891014
:100A780073080F39F10003300310F10DFF3E031D19
:100A8800402D0310710D88008914A630F100F10B78
:100A98004B2D00008312031389101B30F2009E3087
:100AA800F100F10B552DF20B552D00000800F30055
:100AB80070185F2D632D831203130915662D831299
:100AC800031309117308F03988008914A630F1005E
:100AD800F10B6C2D000083120313891073080F3972
:100AE800F10003300310F10DFF3E031D762D0310B6
:100AF800710D88008914A630F100F10B812D0000DA
:100B08008312031389101B30F2009E30F100F10BA1
:100B18008B2DF20B8B2D00000800831203139817FE
:100B28008316031318159816831203131816200832
:100B3800A4002108A5002208A6002308A700043065
:100B48000310A40DA50DA60DA70DFF3E031DA42D92
:100B58002708F3002608F2002508F1002408F00011
:100B68000130F7003130F6002D30F5000030F40088
:100B78000A128A1176260A128A117008FF3E831615
:100B88000313990008007408FB007508FC00F12D98
:100B98000130F7020030031CF803F8020130F607B1
:100BA800FF30760784000A128A1103200A128A117C
:100BB800FF007C08FA007B08F900FB0A0319FC0A0D
:100BC8007908840083177A1C83137F088000000843
:100BD800031DEF2DF02DF12D042E77087804031D49
:100BE800F62DF72DCC2D042E7B08840083177C1C52
:100BF800831380010130FB070318FC0A0030FC074F
:100C08000130F7020030031CF803F802770A031DCD
:100C1800112E780A031D112E122EF82D0800C3304C
:100C2800F500CD30F400F40B172EF50B172EF0015C
:100C380033300A128A1125250A128A111B30F50051
:100C48009E30F400F40B262EF50B262E0000F00142
:100C580033300A128A1125250A128A11A630F400A7
:100C6800F40B342E0000F00133300A128A112525C6
:100C78000A128A113F2E402E0000F00102300A129B
:100C88008A1125250A128A11A630F400F40B4A2E7F
:100C98000000F00128300A128A1125250A128A114B
:100CA800A630F400F40B562E0000F00101300A12B1
:100CB8008A1125250A128A110430F5003D30F40006
:100CC800F40B642EF50B642E692EF0010C300A1219
:100CD8008A1125250A128A11A630F400F40B722E07
:100CE800000008000030FC000030FB000030FA0073
:100CF8000030F90073087204710470040319852E1A
:100D0800862ED32EFD01FD0A962E0130F800031021
:100D1800F00DF10DF20DF30DF80B8B2E0130FF00E5
:100D28007F08FD07F31F992E9A2E892E0130F800AF
:100D38000310F90DFA0DFB0DFC0DF80B9C2E730832
:100D48007702031DB12E72087602031DB12E7108B9
:100D58007502031DB12E70087402031CB42EB52E43
:100D6800C42E7008F4027108031C710FF502720892
:100D7800031C720FF6027308031C730FF702791431
:100D880001300310F30CF20CF10CF00CFF3E031DC4
:100D9800C52E0130FD02031DD22ED32E9A2E7C08BB
:100DA800F3007B08F2007A08F1007908F0000800E7
:100DB800903084005A30FF0083178001840AFF0BAB
:100DC800E02E393084001130FF0083138001840A3B
:100DD800FF0BE92E283084001130FF008001840ABF
:100DE800FF0BF22E83120313CA01CB010A128A11D8
:100DF8007B240A128A1190300A128A11F5240A12E9
:100E08008A1183120313CC01CD01A02F0130CA0728
:100E18000318CB0A0030CB0700304B0221300319EE
:100E28004A02031C182F192F6B2F1130CA000030EB
:100E3800CB003930F4000030F5001030F6003930BE
:100E4800F0000030F1000A128A1198240A128A115F
:100E58007108F8007008F7000A128A11C7250A12EB
:100E68008A1183120313CC01CD014C08283E84005B
:100E780083130008FF004C08393E84007F08800077
:100E88000130CC070318CD0A0030CD0700304D02E1
:100E9800103003194C02031C522F532F392F2830BE
:100EA800F4000030F5001030F6002830F000003073
:100EB800F1000A128A1198240A128A117108F8009E
:100EC8007008F7000A128A11C7250A128A11003021
:100ED800831203134B02113003194A02031C752FA6
:100EE800762F842F4C08903E840083170008FF005B
:100EF8004A08EF3E283E84007F08831380009A2F1B
:100F080000304B02113003194A0203188C2F8D2F21
:100F18009A2F4C08903E840083170008FF004A0867
:100F2800FF3E393E84007F08831380000130CC07E0
:100F38000318CD0A0030CD079030F0000130F100E1
:100F48000A128A1198240A128A117108831203134B
:100F58004D02031DB12F70084C02031CB42FB52F8E
:100F68000A2FC901B8019030F4000130F5001030A3
:100F7800F6009030F0000130F1000A128A1198242E
:100F88000A128A117108F8007008F7000A128A110B
:100F9800C7250A128A11F00101300A128A115B254D
:100FA8000A128A118030F40039300A128A11D524C5
:100FB8000A128A11C030F40028300A128A11D52486
:100FC8000A128A11FF2E0A128A11002883134E3042
:100FD800840070300A128A1154240A128A11831765
:100FE800103084006A300A128A1154240A128A11B5
:080FF80083010A128A11DC2EAC
:08400000FF3FFF3FFF3FFF3FC0
:02400E00FB3F76
:00000001FF
