:100000000A128A11EE2FFF1B0D2883137F18831706
:100010000008840A0319FF0A080000308A00040857
:10002000840A820700345234693467346834743483
:1000300020345334633472346F346C346C34693428
:060040006E346734003449
:100D24000A128A1198260A128A11080083160313DC
:100D34008801091189100A128A1117270A128A11C7
:100D440008005F345F3447346F346F3464342034C4
:100D54004D346F3472346E3469346E3467345F34B6
:100D64005F3400347E088A007F0882000A128A11E8
:100D7400B4260A128A118000840A04087D06031925
:100D84000034FF0A0319FE0AB82EF3007318CB2EA1
:100D9400CF2E831203130915D22E831203130911C4
:100DA400700888008914A630F100F10BD72E0000DA
:100DB4008312031389101B30F2009E30F100F10BF3
:100DC400E12EF20BE12E000008007608F00000305E
:100DD4000A128A11C7260A128A11062F7508FF0003
:100DE400740884000A128A1103200A128A11F0007E
:100DF40001300A128A11C7260A128A110130F40737
:100E04000318F50A0030F507750883120313FF0071
:100E1400740884000A128A1103200A128A11003A03
:100E2400031D152F162FF02E0800C330F500CD300A
:100E3400F400F40B1B2FF50B1B2F3330F0000030A4
:100E44000A128A11C7260A128A111B30F5009E3035
:100E5400F400F40B2B2FF50B2B2F00003330F00094
:100E640000300A128A11C7260A128A11C730F40008
:100E74003B2FF40B3A2F3E2F3F2F3330F00000303E
:100E84000A128A11C7260A128A11482F492F000014
:100E94003830F00000300A128A11C7260A128A116B
:100EA400A630F400F40B542F0000F001F00A0030D7
:100EB4000A128A11C7260A128A110430F5003D303D
:100EC400F400F40B632FF50B632F682F0C30F00044
:100ED40000300A128A11C7260A128A11A630F400B9
:100EE400F40B722F000008000A128A1192260A12CB
:100EF4008A11203084003630F7000408F8001130DD
:100F0400F9007708840083130008FA00F70A7808C8
:100F140084007A088000F80AF90B832F83120313E4
:100F2400B101B201013083120313B1070318B20AED
:100F34000030B20789303106133003193206031D1D
:100F4400A42FA52F942FB101B2010130F4008030F9
:100F5400F5008030F6000A128A11E7260A128A1177
:100F6400831203132F08B3000F30B4000030B50010
:100F7400831203133408FF3E203E840083130008C9
:100F8400FF003408203E84007F088000FF30B4074F
:100F94000318B50AFF30B5073508803AFF008030E2
:100FA4007F02031DD72F013034020318DA2FDB2F01
:100FB400BA2F831203133308A0002030F40000304A
:100FC400F500C030F6000A128A11E7260A128A11C7
:100FD400942F0A128A11002883134730FD0006302B
:100FE400FE00A330FF00363084000A128A11B826AE
:0C0FF4000A128A1183010A128A11762F5A
:02400E00FB3F76
:00000001FF
