:060000000A128A110E280D
:10000800FE00030EF8000A08F9007F08FA000A1239
:100018008A11CB2D0A128A1111280A128A11B026C8
:100028000A128A11DA000A128A11B1260A128A11F2
:10003800DB000A128A11B2260A128A11DC00831325
:100048002030840048300A128A11A8260A128A1120
:10005800FB01FC0183010A128A1132280A128A1153
:1000680054260A128A1101300A128A112D260A1200
:100078008A1183120313D900590A03194428452801
:1000880047285908D8005803031D4B284C28E62850
:1000980042034304031D51285228E628C8010130B1
:1000A8000A128A114F250A128A1183120313C001FA
:1000B800C1019E288312031340083C07BA00410877
:1000C8000318410A3D07BB00BB1F6B286C2870282A
:1000D8000F30BA000030BB003B08803AFF00803088
:1000E8007F02031D792810303A02031C7C287D28E2
:1000F8008728831203133A08F13EBA003B08031815
:10010800013EFF3EBB00831203133A08C03ECC00F9
:100118004008203E8400831300080A128A116F26C3
:100128000A128A11013083120313C0070318C10A87
:100138000030C1074508803ACE004108803A4E0297
:10014800031DA828400844020318AB28AC285E28E1
:10015800FF3083120313BC070318BD0AFF30BD0725
:10016800BD1FB728B828BC280F30BC000030BD0020
:100178000030D3000030D2000030D1000030D00071
:10018800013083120313D007003003180130D10760
:10019800003003180130D207003003180130D307AC
:1001A8005308031DE6285208031DE6289C30510217
:1001B800031DE22840305002031DE228031CE528F5
:1001C800E628C4280230831203135806031DED28BD
:1001D800EE28932942034304031DF328F4289329A6
:1001E800C80101300A128A114F250A128A11831296
:1001F8000313C001C10140298312031340083C07BF
:10020800BA0041080318410A3D07BB00BB1F0D296E
:100218000E2912290F30BA000030BB003B08803A83
:10022800FF0080307F02031D1B2910303A02031C97
:100238001E291F292929831203133A08F13EBA00FF
:100248003B080318013EFF3EBB00831203133A0824
:10025800C03ECC004008203E8400831300080A12E8
:100268008A116F260A128A11013083120313C007FC
:100278000318C10A0030C1074508803ACE0041087A
:10028800803A4E02031D4A294008440203184D29AA
:100298004E290029013083120313BC070318BD0A35
:1002A8000030BD073D08803AFF0080307F02031D03
:1002B8005F2910303C02031C6229632967298312D5
:1002C8000313BC01BD01003083120313D7000030B3
:1002D800D6000030D5000030D4000130831203135B
:1002E800D407003003180130D50700300318013057
:1002F800D607003003180130D7075708031D932984
:100308005608031D93299C305502031D8F29403040
:100318005402031D8F29031C9229932971298312E2
:1003280003135903031D99299A29DD294603470414
:10033800031D9F29A029DD294408203E840083133A
:100348000008013EFF004408203E84007F0880002A
:100358004408203E84003A300002031CB429B52921
:10036800BA294408203E8400303080004408203EEA
:100378008400303000020318C229C329C829440860
:10038800203E8400393080004408C53ECC00440833
:10039800203E840000080A128A116F260A128A1168
:1003A80083120313C80110300A128A114F250A124A
:1003B8008A110230831203135906031DE429E52923
:1003C800282A46034704031DEA29EB29282A44085A
:1003D800203E840083130008FF3EFF004408203EAF
:1003E80084007F0880004408203E84003A300002E0
:1003F800031CFF29002A052A4408203E84003030C7
:1004080080004408203E84003030000203180D2A82
:100418000E2A132A4408203E8400393080004408FC
:10042800C53ECC004408203E840000080A128A1108
:100438006F260A128A1183120313C80110300A1298
:100448008A114F250A128A110330831203135906A1
:10045800031D2F2A302A782A460847040319352A0B
:10046800372A0130382A0030CE00CF014E08C600A6
:100478004F08C700420843040319432A452A01309C
:10048800462A0030CE00CF014E08C2004F08C300F4
:1004980042034304031D512A522A542AD801D80A78
:1004A800C8010C300A128A114F250A128A118312C8
:1004B8000313C80101300A128A114F250A128A1142
:1004C800803083120313CC0001300A128A11FF25F1
:1004D8000A128A11C03083120313CC0034300A1276
:1004E8008A11FF250A128A11043083120313590650
:1004F80003197F2A802A862A5A085B040319852A49
:10050800862ACB2A0130C6000030C700C201C301C9
:10051800C401C5013030A000C80101300A128A1197
:100528004F250A128A11803083120313CC0012302F
:100538000A128A11FF250A128A11C0308312031386
:10054800CC0045300A128A11FF250A128A11C530DB
:1005580083120313CC0020080A128A116F260A128C
:100568008A1183120313C8010F300A128A114F250A
:100578000A128A1183120313C80110300A128A1151
:100588004F250A128A1183120313DA01DB010530A1
:100598005906031DD02AD12A0E2B46034704031DF2
:1005A800D62AD72A0E2B0130C4070318C50A0030F3
:1005B800C5074408203E8400303083138000450876
:1005C800803AFF0080307F02031DEC2A0B30440282
:1005D800031CEF2AF02AF62A0A3083120313C400F8
:1005E8000030C500831203134408C53ECC004408FC
:1005F800203E8400831300080A128A116F260A120B
:100608008A1183120313C80110300A128A114F2568
:100618000A128A110630831203135906031D152B7B
:10062800162B372846034704031D1B2B1C2B372882
:100638004408203E84003030831380004408C53EBF
:10064800CC0000300A128A116F260A128A11FF3074
:1006580083120313C4070318C50AFF30C507C51F53
:10066800362B372B392BC401C501C80110300A12AB
:100678008A114F250A128A1183120313C8011030F8
:100688000A128A114F250A128A1137280A128A116A
:100698000E2883120313881108158814081464306F
:1006A800C8000030C900FF30C8070318C90AFF3066
:1006B800C907480A031D642B490A031D642B652BCF
:1006C800572B0618682B692B6B2B0130F02B8618DB
:1006D8006E2B6F2B712B0230F02B0619742B752B98
:1006E800772B0330F02B8815081188140814643010
:1006F800C8000030C900FF30C8070318C90AFF3016
:10070800C907480A031D8C2B490A031D8C2B8D2B06
:100718007F2B0618902B912B932B0430F02B8618E7
:10072800962B972B992B0530F02B06199C2B9D2B7C
:100738009F2B0630F02B8815081588100814643094
:10074800C8000030C900FF30C8070318C90AFF30C5
:10075800C907480A031DB42B490A031DB42BB52B3E
:10076800A72B0618B82BB92BBB2B0730F02B8618F4
:10077800BE2BBF2BC12B0830F02B0619C42BC52B61
:10078800C72B0930F02B8815081588140810643019
:10079800C8000030C900FF30C8070318C90AFF3075
:1007A800C907480A031DDC2B490A031DDC2BDD2B76
:1007B800CF2B0618E02BE12BE32B2A30F02B8618E1
:1007C800E62BE72BE92B0030F02B0619EC2BED2B51
:1007D800EF2B2330F02BFF300800C33083120313B4
:1007E800CD00CC30CC00CC0BF72BCD0BF72B000079
:1007F80083120313C80133300A128A118D250A1295
:100808008A111B3083120313CD009D30CC00CC0B12
:100818000B2CCD0B0B2C102C83120313C801333077
:100828000A128A118D250A128A11A5308312031320
:10083800CC00CC0B1D2C202C83120313C8013330A1
:100848000A128A118D250A128A112A2C2B2C0000D3
:1008580083120313C80102300A128A118D250A1265
:100868008A11A53083120313CC00CC0B392C3C2CF5
:1008780083120313C80128300A128A118D250A121F
:100888008A11A53083120313CC00CC0B492C4C2CB5
:1008980083120313C80101300A128A118D250A1226
:1008A8008A11043083120313CD003D30CC00CC0BE9
:1008B8005B2CCD0B5B2C83120313C8010C300A127E
:1008C8008A118D250A128A11A53083120313CC00D0
:1008D800CC0B6C2C6F2C0800F501F11F742C752CB7
:1008E8007C2CF009F109F00A0319F10AF501F50A5F
:1008F800F31F7F2C802C892CF209F309F20A0319C3
:10090800F30A0130FF007F08F506F601F7017008C9
:1009180071040319902C912CC82CF401F40A9F2C13
:1009280001300310F00DF10DFF3E031D952C013031
:10093800FF007F08F407F11FA22CA32C942C013090
:100948000310F60DF70DFF3E031DA42C710873026A
:10095800031DB02C70087202031CB32CB42CBB2CE2
:100968007008F2027108031CF303F30276140130D5
:100978000310F10CF00CFF3E031DBC2C0130F402F7
:10098800031DC72CC82CA32C75080319CC2CCD2CFF
:10099800D22CF609F709F60A0319F70A7708F100C5
:0609A8007608F0000800D3
:100A000005308A000408840A8207003453346334B2
:100A100072346F346C346C3469346E34673420341F
:100A20004D34613472347134753465340034453476
:100A30006E3474346534723420344E346534773413
:100A400020344E3475346D3462346534723400347D
:100A500065346E34743465347234203474346834DC
:100A6000653420346E3475346D34623465347234D8
:100A70000034523465346C34653461347334653415
:100A80002034733474346F34703420346B346534F0
:100A9000793400344D34733467343A34003483127B
:100AA0000313CB004818552D592D83120313091534
:100AB0005C2D8312031309114B08F0398800891447
:100AC000A53083120313C900C90B642D672D83124F
:100AD000031389104B080F39C90003300310C90DE7
:100AE000FF3E031D6E2D0310490D88008914A530AB
:100AF00083120313C900C90B7B2D7E2D83120313B0
:100B000089101B3083120313CA009D30C900C90B22
:100B1000872DCA0B872D8C2D080083120313CB0061
:100B20004818932D972D8312031309159A2D8312BC
:100B3000031309114B08F03988008914A53083127A
:100B40000313C900C90BA22DA52D8312031389100D
:100B50004B080F39C90003300310C90DFF3E031DB8
:100B6000AC2D0310490D88008914A530831203139E
:100B7000C900C90BB92DBC2D8312031389101B307A
:100B800083120313CA009D30C900C90BC52DCA0BBF
:100B9000C52DCA2D08000B1DCE2DCF2DF62D83128D
:100BA00003130108083E81007C08F1007B08F00077
:100BB0002030F2004E30F3000A128A1170240A121B
:100BC0008A11013083120313B8070318B90A0030E1
:100BD000B90771083906031DEF2D70083806031D8B
:100BE000F22DF32DF52DB801B9010B117A08FF0094
:100BF00079088A00780E8300FE0E7E0E09008312AB
:100C00000313CD00C8014C080A128A118D250A125F
:100C10008A111E2EC801C80A4D0884000A128A11C2
:100C200000250A128A110A128A118D250A128A11C8
:100C30000130FF007F0883120313CD0783120313D3
:100C40004D0884000A128A1100250A128A11003AFE
:100C5000031D2B2E2C2E0A2E080083120313CA000C
:100C60000A128A114D230A128A1183120313CB0030
:100C70004A08031D3C2E3D2E3F2E4B08532E4B0A97
:100C80000319432E442E4B2E5C080319482E492E7F
:100C90004B2EDC013D2E4B0A031D4F2E502E522EA3
:100CA000DC01DC0AFF3008008B170A128A11942637
:100CB0000A128A110A128A1184260A128A110A1249
:100CC0008A119F260A128A11803083120313CC00E6
:100CD00023300A128A11FF250A128A110800831292
:100CE0000313CD00C8014C080A128A118D250A127F
:100CF0008A1183120313C801C80A4D080A128A1107
:100D00008D250A128A110800831603130608073876
:100D100086000808F03988008113831203138815B0
:100D20000815881408140800831603138801091194
:100D300089100A128A11F1230A128A1108008316F7
:100D400003138112811506308312031381000800FA
:100D500064008001840A0406031900340406A92EE5
:060D6000013400340134EF
:08400000FF3FFF3FFF3FFF3FC0
:02400E00FB3F76
:00000001FF
